:100000000C945D000C9485000C9485000C94850084
:100010000C9485000C9485000C9485000C9485004C
:100020000C9485000C9485000C9485000C9485003C
:100030000C9485000C9430030C9485000C9485007E
:100040000C94E6020C9485000C94B4020C948E027D
:100050000C9485000C9485000C9485000C9485000C
:100060000C9485000C94850000000008000201003B
:100070000003040700000000000000000000000072
:10008000250028002B0000000000240027002A0083
:10009000040404040404040402020202020203032E
:1000A0000303030301020408102040800102040836
:1000B0001020010204081020F20411241FBECFEF0B
:1000C000D8E0DEBFCDBF11E0A0E0B1E0E2E9FAE0A8
:1000D00002C005900D92A631B107D9F721E0A6E143
:1000E000B1E001C01D92A03CB207E1F710E0CDE500
:1000F000D0E004C02197FE010E944105CC35D10714
:10010000C9F70E9457030C9447050C94000090E037
:10011000FC01EC55FF4F249180579F4FFC018491C7
:10012000882399F090E0880F991FFC01EA57FF4F50
:10013000A591B491FC01E458FF4F859194918FB73C
:10014000F894EC91E22BEC938FBF0895AF92BF929D
:10015000CF92DF92EF92FF920F931F93CF93DF9393
:100160006C017B018B01040F151FEB015E01AE18C2
:10017000BF08C017D10759F06991D601ED91FC91E4
:100180000190F081E02DC6010995892B79F7C50111
:10019000DF91CF911F910F91FF90EF90DF90CF9063
:1001A000BF90AF900895FC01538D448D252F30E012
:1001B000842F90E0821B930B541710F0CF96089574
:1001C00001970895FC01918D828D981761F0A28DA1
:1001D000AE0FBF2FB11D5D968C91928D9F5F9F7367
:1001E000928F90E008958FEF9FEF0895FC01918D1D
:1001F000828D981731F0828DE80FF11D858D90E08A
:1002000008958FEF9FEF0895FC01918D228D892F26
:1002100090E0805C9F4F821B91098F73992708950E
:1002200083E291E00E94040121E0892B09F420E09F
:10023000822F089580E090E0892B29F00E94100120
:1002400081110C9400000895FC01A48DA80FB92F12
:10025000B11DA35ABF4F2C91848D90E001968F73EE
:100260009927848FA689B7892C93A089B1898C910D
:10027000837080648C93938D848D981306C002885C
:10028000F389E02D80818F7D80830895EF92FF9226
:100290000F931F93CF93DF93EC0181E0888F9B8DA9
:1002A0008C8D98131AC0E889F989808185FF15C063
:1002B0009FB7F894EE89FF896083E889F989808186
:1002C0008370806480839FBF81E090E0DF91CF9155
:1002D0001F910F91FF90EF900895F62E0B8D10E077
:1002E0000F5F1F4F0F731127E02E8C8D8E110CC0E6
:1002F0000FB607FCFACFE889F989808185FFF5CF31
:10030000CE010E942401F1CFEB8DEC0FFD2FF11DEA
:10031000E35AFF4FF0829FB7F8940B8FEA89FB896D
:1003200080818062CFCFCF93DF93EC01888D8823CB
:10033000B9F0AA89BB89E889F9898C9185FD03C048
:10034000808186FD0DC00FB607FCF7CF8C9185FF2D
:10035000F2CF808185FFEDCFCE010E942401E9CF4D
:10036000DF91CF91089590E0FC01E859FF4F24916F
:10037000FC01EC55FF4F3491FC01E057FF4FE49135
:10038000EE23C9F0222339F0233001F1A8F4213003
:1003900019F1223029F1F0E0EE0FFF1FE458FF4F72
:1003A000A591B4918FB7F894EC91611126C0309566
:1003B0003E233C938FBF08952730A9F02830C9F021
:1003C000243049F7809180008F7D03C080918000A8
:1003D0008F7780938000DFCF84B58F7784BDDBCFAC
:1003E00084B58F7DFBCF8091B0008F778093B00074
:1003F000D2CF8091B0008F7DF9CF3E2BDACF8F9294
:100400009F92AF92BF920F931F93CF93DF93CDB77D
:10041000DEB7A1970FB6F894DEBF0FBECDBF19A20D
:10042000423008F44AE08E010F5D1F4F842E912C5C
:10043000B12CA12CA50194010E941F05E62FB90142
:10044000CA01EA3044F5E05DD801EE938D01232B1B
:10045000242B252B79F790E080E0109769F0FD01BF
:1004600001900020E9F73197AF014A1B5B0BBD01FA
:1004700083E291E00E94A600A1960FB6F894DEBF39
:100480000FBECDBFDF91CF911F910F91BF90AF9065
:100490009F908F900895E95CD7CFCF92DF92EF9233
:1004A000FF9280E480937C0080917A008064809346
:1004B0007A0080917A0086FDFCCF9091780080913F
:1004C000790089279827892790931701809316012F
:1004D0006C01092E000CEE08FF0897FF1BC06DE2AF
:1004E00083E291E00E94460166277727CB016C19D1
:1004F0007D098E099F094AE00E94FF0142E050E019
:1005000062E171E083E291E0FF90EF90DF90CF90A5
:100510000C94A6004AE0C701B601EECF1F920F92DD
:100520000FB60F9211242F933F934F935F936F93C6
:100530007F938F939F93AF93BF93EF93FF9383E248
:1005400091E00E942401FF91EF91BF91AF919F91A3
:100550008F917F916F915F914F913F912F910F906C
:100560000FBE0F901F9018951F920F920FB60F920B
:1005700011242F938F939F93EF93FF93E091330177
:10058000F09134018081E0913901F0913A0182FDCE
:100590001BC0908180913C018F5F8F7320913D0142
:1005A000821741F0E0913C01F0E0ED5DFE4F958F48
:1005B00080933C01FF91EF919F918F912F910F902C
:1005C0000FBE0F901F9018958081F4CF1F920F924D
:1005D0000FB60F9211242F933F938F939F93AF9356
:1005E000BF9380911D0190911E01A0911F01B091B8
:1005F000200130911C0123E0230F2D3758F501967F
:10060000A11DB11D20931C0180931D0190931E011B
:10061000A0931F01B09320018091180190911901BE
:10062000A0911A01B0911B010196A11DB11D8093EB
:10063000180190931901A0931A01B0931B01BF9167
:10064000AF919F918F913F912F910F900FBE0F907F
:100650001F90189526E8230F0296A11DB11DD2CF39
:100660001F920F920FB60F9211242F933F934F9327
:100670005F936F937F938F939F93AF93BF93EF930A
:10068000FF93E0912101F09122010995FF91EF91F3
:10069000BF91AF919F918F917F916F915F914F919A
:1006A0003F912F910F900FBE0F901F901895789447
:1006B00084B5826084BD84B5816084BD85B5826067
:1006C00085BD85B5816085BD80916E008160809318
:1006D0006E00109281008091810082608093810081
:1006E0008091810081608093810080918000816091
:1006F000809380008091B10084608093B1008091EC
:10070000B00081608093B00080917A008460809313
:100710007A0080917A00826080937A0080917A00DA
:10072000816080937A0080917A00806880937A005B
:100730001092C10080E1809381001092800080E4DB
:1007400096E0909387008093860081E180938100FA
:100750008DE492E0909322018093210181E08093C7
:100760006F00E0913301F091340182E08083E091E9
:100770002F01F09130011082E0913101F0913201AE
:100780008FEC808310923B01E0913701F0913801AA
:1007900086E08083E0913501F091360180818061AF
:1007A0008083E0913501F0913601808188608083FB
:1007B000E0913501F0913601808180688083E0917D
:1007C0003501F091360180818F7D808382E00E9427
:1007D000870083E00E94870084E00E94870085E014
:1007E0000E94870086E00E94870087E00E948700C1
:1007F00088E00E94870089E00E948700C0E0D0E086
:1008000083E291E00E940401181619060CF041C021
:1008100083E291E00E94E200C1978331910508F0E4
:1008200038C0FC01EA5EFB4F0C94410529045404D6
:100830005A046C0482049004A204B004BA0449046B
:10084000490449044904490449044904BC04C20454
:10085000E00461E082E00E94B30160E083E00E9476
:10086000B30160E084E00E94B30160E085E00E9493
:10087000B30161E086E00E94B30161E087E00E947D
:10088000B30160E088E00E94B30161E089E00E946A
:10089000B301209709F4B4CF0E941001882309F412
:1008A000AFCF0E940000ACCF60E082E00E94B301B5
:1008B00061E0D4CF60E082E00E94B30161E083E0B8
:1008C0000E94B30160E084E00E94B30161E085E032
:1008D0000E94B30160E0CECF60E082E00E94B301ED
:1008E00060E083E00E94B30160E084E00E94B30115
:1008F00060E085E00E94B30160E086E00E94B30101
:1009000060E0BCCF61E082E00E94B30160E083E080
:100910000E94B30160E084E00E94B30161E0E9CF8E
:1009200060E082E00E94B30161E083E00E94B301D5
:1009300060E084E00E94B30160E085E00E94B301C2
:1009400061E0DBCF61E082E00E94B30161E083E01F
:100950000E94B30160E084E00E94B30161E086CFB1
:1009600060E082E00E94B30160E083E00E94B30196
:1009700061E0F1CF61E0F5CF60E082E00E94B30179
:1009800061E0F3CF61E082E00E94B30161E083E0C7
:100990000E94B30161E084E00E94B30160E085E061
:1009A0000E94B30161E086E00E94B30161E087E04C
:1009B0000E94B30161E088E00E94B30160E066CF6D
:1009C00061E082E00E94B30161E083E00E94B30134
:1009D00061E084E00E94B30160E085E00E94B30121
:1009E00060E0E1CFE3E2F1E01382128288EE93E06F
:1009F000A0E0B0E084839583A683B78384E091E090
:100A00009183808385EC90E09587848784EC90E0E7
:100A10009787868780EC90E0918B808B81EC90E0CB
:100A2000938B828B82EC90E0958B848B86EC90E0AC
:100A3000978B868B118E128E138E148E0895A1E2E1
:100A40001A2EAA1BBB1BFD010DC0AA1FBB1FEE1F48
:100A5000FF1FA217B307E407F50720F0A21BB30B93
:100A6000E40BF50B661F771F881F991F1A9469F70F
:100A700060957095809590959B01AC01BD01CF016B
:100A80000895EE0FFF1F0590F491E02D0994F8945E
:020A9000FFCF96
:100A9200000000004601A600D30093010401E20019
:060AA200F6000D0A000041
:00000001FF
